{"abi":[{"type":"constructor","inputs":[{"name":"_feeReceiver","type":"address","internalType":"address"},{"name":"permit2","type":"address","internalType":"address"}],"stateMutability":"nonpayable"},{"type":"fallback","stateMutability":"payable"},{"type":"receive","stateMutability":"payable"},{"type":"function","name":"FEE_RECEIVER","inputs":[],"outputs":[{"name":"","type":"address","internalType":"address"}],"stateMutability":"view"},{"type":"function","name":"PERMIT2","inputs":[],"outputs":[{"name":"","type":"address","internalType":"contract IPermit2"}],"stateMutability":"view"},{"type":"function","name":"lastGreetingHash","inputs":[],"outputs":[{"name":"","type":"bytes32","internalType":"bytes32"}],"stateMutability":"view"},{"type":"function","name":"owner","inputs":[],"outputs":[{"name":"","type":"address","internalType":"address"}],"stateMutability":"view"},{"type":"function","name":"renounceOwnership","inputs":[],"outputs":[],"stateMutability":"nonpayable"},{"type":"function","name":"setGreetingETH","inputs":[{"name":"newGreeting","type":"string","internalType":"string"}],"outputs":[],"stateMutability":"payable"},{"type":"function","name":"setGreetingWithPermit2","inputs":[{"name":"token","type":"address","internalType":"address"},{"name":"fee","type":"uint256","internalType":"uint256"},{"name":"permit","type":"tuple","internalType":"struct IPermit2.PermitTransferFrom","components":[{"name":"permitted","type":"tuple","internalType":"struct IPermit2.TokenPermissions","components":[{"name":"token","type":"address","internalType":"address"},{"name":"amount","type":"uint256","internalType":"uint256"}]},{"name":"nonce","type":"uint256","internalType":"uint256"},{"name":"deadline","type":"uint256","internalType":"uint256"}]},{"name":"signature","type":"bytes","internalType":"bytes"},{"name":"newGreeting","type":"string","internalType":"string"}],"outputs":[],"stateMutability":"nonpayable"},{"type":"function","name":"setGreetingWithPermit2612","inputs":[{"name":"token","type":"address","internalType":"address"},{"name":"fee","type":"uint256","internalType":"uint256"},{"name":"deadline","type":"uint256","internalType":"uint256"},{"name":"v","type":"uint8","internalType":"uint8"},{"name":"r","type":"bytes32","internalType":"bytes32"},{"name":"s","type":"bytes32","internalType":"bytes32"},{"name":"newGreeting","type":"string","internalType":"string"}],"outputs":[],"stateMutability":"nonpayable"},{"type":"function","name":"totalCounter","inputs":[],"outputs":[{"name":"","type":"uint256","internalType":"uint256"}],"stateMutability":"view"},{"type":"function","name":"transferOwnership","inputs":[{"name":"newOwner","type":"address","internalType":"address"}],"outputs":[],"stateMutability":"nonpayable"},{"type":"function","name":"userGreetingCounter","inputs":[{"name":"","type":"address","internalType":"address"}],"outputs":[{"name":"","type":"uint256","internalType":"uint256"}],"stateMutability":"view"},{"type":"event","name":"GreetingLogged","inputs":[{"name":"user","type":"address","indexed":true,"internalType":"address"},{"name":"fullMessage","type":"string","indexed":false,"internalType":"string"},{"name":"messageHash","type":"bytes32","indexed":false,"internalType":"bytes32"},{"name":"premium","type":"bool","indexed":false,"internalType":"bool"},{"name":"fee","type":"uint256","indexed":false,"internalType":"uint256"},{"name":"token","type":"address","indexed":true,"internalType":"address"}],"anonymous":false},{"type":"event","name":"OwnershipTransferred","inputs":[{"name":"previousOwner","type":"address","indexed":true,"internalType":"address"},{"name":"newOwner","type":"address","indexed":true,"internalType":"address"}],"anonymous":false},{"type":"error","name":"EthTransferFailed","inputs":[{"name":"to","type":"address","internalType":"address"},{"name":"amount","type":"uint256","internalType":"uint256"}]},{"type":"error","name":"InvalidFee","inputs":[{"name":"fee","type":"uint256","internalType":"uint256"}]},{"type":"error","name":"OwnableInvalidOwner","inputs":[{"name":"owner","type":"address","internalType":"address"}]},{"type":"error","name":"OwnableUnauthorizedAccount","inputs":[{"name":"account","type":"address","internalType":"address"}]},{"type":"error","name":"Permit2NotConfigured","inputs":[]},{"type":"error","name":"PullFailed","inputs":[{"name":"token","type":"address","internalType":"address"},{"name":"from","type":"address","internalType":"address"},{"name":"to","type":"address","internalType":"address"},{"name":"amount","type":"uint256","internalType":"uint256"}]},{"type":"error","name":"WrongPermitToken","inputs":[{"name":"expected","type":"address","internalType":"address"},{"name":"actual","type":"address","internalType":"address"}]},{"type":"error","name":"ZeroAddress","inputs":[{"name":"param","type":"string","internalType":"string"}]}],"bytecode":{"object":"0x60c060405234801561000f575f5ffd5b5060405161196e38038061196e833981810160405281019061003191906102ae565b335f73ffffffffffffffffffffffffffffffffffffffff168173ffffffffffffffffffffffffffffffffffffffff16036100a2575f6040517f1e4fbdf700000000000000000000000000000000000000000000000000000000815260040161009991906102fb565b60405180910390fd5b6100b18161018f60201b60201c565b505f73ffffffffffffffffffffffffffffffffffffffff168273ffffffffffffffffffffffffffffffffffffffff1603610120576040517feac0d3890000000000000000000000000000000000000000000000000000000081526004016101179061036e565b60405180910390fd5b8173ffffffffffffffffffffffffffffffffffffffff1660808173ffffffffffffffffffffffffffffffffffffffff16815250508073ffffffffffffffffffffffffffffffffffffffff1660a08173ffffffffffffffffffffffffffffffffffffffff1681525050505061038c565b5f5f5f9054906101000a900473ffffffffffffffffffffffffffffffffffffffff169050815f5f6101000a81548173ffffffffffffffffffffffffffffffffffffffff021916908373ffffffffffffffffffffffffffffffffffffffff1602179055508173ffffffffffffffffffffffffffffffffffffffff168173ffffffffffffffffffffffffffffffffffffffff167f8be0079c531659141344cd1fd0a4f28419497f9722a3daafe3b4186f6b6457e060405160405180910390a35050565b5f5ffd5b5f73ffffffffffffffffffffffffffffffffffffffff82169050919050565b5f61027d82610254565b9050919050565b61028d81610273565b8114610297575f5ffd5b50565b5f815190506102a881610284565b92915050565b5f5f604083850312156102c4576102c3610250565b5b5f6102d18582860161029a565b92505060206102e28582860161029a565b9150509250929050565b6102f581610273565b82525050565b5f60208201905061030e5f8301846102ec565b92915050565b5f82825260208201905092915050565b7f4645455f524543454956455200000000000000000000000000000000000000005f82015250565b5f610358600c83610314565b915061036382610324565b602082019050919050565b5f6020820190508181035f8301526103858161034c565b9050919050565b60805160a0516115906103de5f395f81816102730152818161042b015261062501525f818161047301528181610534015281816105c0015281816107c50152818161084e01526108ea01526115905ff3fe60806040526004361061009f575f3560e01c8063938df4b711610063578063938df4b71461015057806397feba9d14610178578063a09b3690146101a2578063cea49c3c146101cc578063d3e78e4d14610208578063f2fde38b14610232576100a0565b80633aa77936146100a25780634555b30b146100ca5780636afdd850146100e6578063715018a6146101105780638da5cb5b14610126576100a0565b5b005b3480156100ad575f5ffd5b506100c860048036038101906100c39190610d3f565b61025a565b005b6100e460048036038101906100df9190610df7565b610519565b005b3480156100f1575f5ffd5b506100fa610623565b6040516101079190610e9d565b60405180910390f35b34801561011b575f5ffd5b50610124610647565b005b348015610131575f5ffd5b5061013a61065a565b6040516101479190610ec5565b60405180910390f35b34801561015b575f5ffd5b5061017660048036038101906101719190610f47565b610681565b005b348015610183575f5ffd5b5061018c6108c7565b6040516101999190611013565b60405180910390f35b3480156101ad575f5ffd5b506101b66108cd565b6040516101c3919061103b565b60405180910390f35b3480156101d7575f5ffd5b506101f260048036038101906101ed9190611054565b6108d3565b6040516101ff9190611013565b60405180910390f35b348015610213575f5ffd5b5061021c6108e8565b6040516102299190610ec5565b60405180910390f35b34801561023d575f5ffd5b5061025860048036038101906102539190611054565b61090c565b005b5f73ffffffffffffffffffffffffffffffffffffffff167f000000000000000000000000000000000000000000000000000000000000000073ffffffffffffffffffffffffffffffffffffffff16036102df576040517f6f8a66c900000000000000000000000000000000000000000000000000000000815260040160405180910390fd5b5f73ffffffffffffffffffffffffffffffffffffffff168773ffffffffffffffffffffffffffffffffffffffff160361034d576040517feac0d389000000000000000000000000000000000000000000000000000000008152600401610344906110d9565b60405180910390fd5b5f860361039157856040517f2f38c6ee0000000000000000000000000000000000000000000000000000000081526004016103889190611013565b60405180910390fd5b8673ffffffffffffffffffffffffffffffffffffffff16855f015f0160208101906103bc9190611054565b73ffffffffffffffffffffffffffffffffffffffff16146104295786855f015f0160208101906103ec9190611054565b6040517ff36e0afd0000000000000000000000000000000000000000000000000000000081526004016104209291906110f7565b60405180910390fd5b7f000000000000000000000000000000000000000000000000000000000000000073ffffffffffffffffffffffffffffffffffffffff166330f28b7a8660405180604001604052807f000000000000000000000000000000000000000000000000000000000000000073ffffffffffffffffffffffffffffffffffffffff1681526020018a8152503388886040518663ffffffff1660e01b81526004016104d495949392919061128e565b5f604051808303815f87803b1580156104eb575f5ffd5b505af11580156104fd573d5f5f3e3d5ffd5b5050505061051033838360018a8c610990565b50505050505050565b6105293383835f3411345f610990565b5f34111561061f575f7f000000000000000000000000000000000000000000000000000000000000000073ffffffffffffffffffffffffffffffffffffffff163460405161057690611308565b5f6040518083038185875af1925050503d805f81146105b0576040519150601f19603f3d011682016040523d82523d5f602084013e6105b5565b606091505b505090508061061d577f0000000000000000000000000000000000000000000000000000000000000000346040517fdea95fba00000000000000000000000000000000000000000000000000000000815260040161061492919061131c565b60405180910390fd5b505b5050565b7f000000000000000000000000000000000000000000000000000000000000000081565b61064f610a83565b6106585f610b0a565b565b5f5f5f9054906101000a900473ffffffffffffffffffffffffffffffffffffffff16905090565b5f73ffffffffffffffffffffffffffffffffffffffff168873ffffffffffffffffffffffffffffffffffffffff16036106ef576040517feac0d3890000000000000000000000000000000000000000000000000000000081526004016106e6906110d9565b60405180910390fd5b5f870361073357866040517f2f38c6ee00000000000000000000000000000000000000000000000000000000815260040161072a9190611013565b60405180910390fd5b8773ffffffffffffffffffffffffffffffffffffffff1663d505accf33308a8a8a8a8a6040518863ffffffff1660e01b81526004016107789796959493929190611352565b5f604051808303815f87803b15801561078f575f5ffd5b505af11580156107a1573d5f5f3e3d5ffd5b505050505f8873ffffffffffffffffffffffffffffffffffffffff166323b872dd337f00000000000000000000000000000000000000000000000000000000000000008b6040518463ffffffff1660e01b8152600401610803939291906113bf565b6020604051808303815f875af115801561081f573d5f5f3e3d5ffd5b505050506040513d601f19601f820116820180604052508101906108439190611429565b9050806108ad5788337f00000000000000000000000000000000000000000000000000000000000000008a6040517fbd46005b0000000000000000000000000000000000000000000000000000000081526004016108a49493929190611454565b60405180910390fd5b6108bc33848460018c8e610990565b505050505050505050565b60025481565b60015481565b6003602052805f5260405f205f915090505481565b7f000000000000000000000000000000000000000000000000000000000000000081565b610914610a83565b5f73ffffffffffffffffffffffffffffffffffffffff168173ffffffffffffffffffffffffffffffffffffffff1603610984575f6040517f1e4fbdf700000000000000000000000000000000000000000000000000000000815260040161097b9190610ec5565b60405180910390fd5b61098d81610b0a565b50565b5f85856040516109a19291906114bb565b6040518091039020905080600181905550600160025f8282540192505081905550600160035f8973ffffffffffffffffffffffffffffffffffffffff1673ffffffffffffffffffffffffffffffffffffffff1681526020019081526020015f205f82825401925050819055508173ffffffffffffffffffffffffffffffffffffffff168773ffffffffffffffffffffffffffffffffffffffff167ff484cd319f089999b9be8b3e92faf00cb8235eea8de3fd2405a3ee0baf3c2ac38888858989604051610a7295949392919061150e565b60405180910390a350505050505050565b610a8b610bcb565b73ffffffffffffffffffffffffffffffffffffffff16610aa961065a565b73ffffffffffffffffffffffffffffffffffffffff1614610b0857610acc610bcb565b6040517f118cdaa7000000000000000000000000000000000000000000000000000000008152600401610aff9190610ec5565b60405180910390fd5b565b5f5f5f9054906101000a900473ffffffffffffffffffffffffffffffffffffffff169050815f5f6101000a81548173ffffffffffffffffffffffffffffffffffffffff021916908373ffffffffffffffffffffffffffffffffffffffff1602179055508173ffffffffffffffffffffffffffffffffffffffff168173ffffffffffffffffffffffffffffffffffffffff167f8be0079c531659141344cd1fd0a4f28419497f9722a3daafe3b4186f6b6457e060405160405180910390a35050565b5f33905090565b5f5ffd5b5f5ffd5b5f73ffffffffffffffffffffffffffffffffffffffff82169050919050565b5f610c0382610bda565b9050919050565b610c1381610bf9565b8114610c1d575f5ffd5b50565b5f81359050610c2e81610c0a565b92915050565b5f819050919050565b610c4681610c34565b8114610c50575f5ffd5b50565b5f81359050610c6181610c3d565b92915050565b5f5ffd5b5f60808284031215610c8057610c7f610c67565b5b81905092915050565b5f5ffd5b5f5ffd5b5f5ffd5b5f5f83601f840112610caa57610ca9610c89565b5b8235905067ffffffffffffffff811115610cc757610cc6610c8d565b5b602083019150836001820283011115610ce357610ce2610c91565b5b9250929050565b5f5f83601f840112610cff57610cfe610c89565b5b8235905067ffffffffffffffff811115610d1c57610d1b610c8d565b5b602083019150836001820283011115610d3857610d37610c91565b5b9250929050565b5f5f5f5f5f5f5f610100888a031215610d5b57610d5a610bd2565b5b5f610d688a828b01610c20565b9750506020610d798a828b01610c53565b9650506040610d8a8a828b01610c6b565b95505060c088013567ffffffffffffffff811115610dab57610daa610bd6565b5b610db78a828b01610c95565b945094505060e088013567ffffffffffffffff811115610dda57610dd9610bd6565b5b610de68a828b01610cea565b925092505092959891949750929550565b5f5f60208385031215610e0d57610e0c610bd2565b5b5f83013567ffffffffffffffff811115610e2a57610e29610bd6565b5b610e3685828601610cea565b92509250509250929050565b5f819050919050565b5f610e65610e60610e5b84610bda565b610e42565b610bda565b9050919050565b5f610e7682610e4b565b9050919050565b5f610e8782610e6c565b9050919050565b610e9781610e7d565b82525050565b5f602082019050610eb05f830184610e8e565b92915050565b610ebf81610bf9565b82525050565b5f602082019050610ed85f830184610eb6565b92915050565b5f60ff82169050919050565b610ef381610ede565b8114610efd575f5ffd5b50565b5f81359050610f0e81610eea565b92915050565b5f819050919050565b610f2681610f14565b8114610f30575f5ffd5b50565b5f81359050610f4181610f1d565b92915050565b5f5f5f5f5f5f5f5f60e0898b031215610f6357610f62610bd2565b5b5f610f708b828c01610c20565b9850506020610f818b828c01610c53565b9750506040610f928b828c01610c53565b9650506060610fa38b828c01610f00565b9550506080610fb48b828c01610f33565b94505060a0610fc58b828c01610f33565b93505060c089013567ffffffffffffffff811115610fe657610fe5610bd6565b5b610ff28b828c01610cea565b92509250509295985092959890939650565b61100d81610c34565b82525050565b5f6020820190506110265f830184611004565b92915050565b61103581610f14565b82525050565b5f60208201905061104e5f83018461102c565b92915050565b5f6020828403121561106957611068610bd2565b5b5f61107684828501610c20565b91505092915050565b5f82825260208201905092915050565b7f746f6b656e0000000000000000000000000000000000000000000000000000005f82015250565b5f6110c360058361107f565b91506110ce8261108f565b602082019050919050565b5f6020820190508181035f8301526110f0816110b7565b9050919050565b5f60408201905061110a5f830185610eb6565b6111176020830184610eb6565b9392505050565b5f82905092915050565b5f6111366020840184610c20565b905092915050565b61114781610bf9565b82525050565b5f61115b6020840184610c53565b905092915050565b61116c81610c34565b82525050565b604082016111825f830183611128565b61118e5f85018261113e565b5061119c602083018361114d565b6111a96020850182611163565b50505050565b608082016111bf5f83018361111e565b6111cb5f850182611172565b506111d9604083018361114d565b6111e66040850182611163565b506111f4606083018361114d565b6112016060850182611163565b50505050565b604082015f82015161121b5f85018261113e565b50602082015161122e6020850182611163565b50505050565b5f82825260208201905092915050565b828183375f83830152505050565b5f601f19601f8301169050919050565b5f61126d8385611234565b935061127a838584611244565b61128383611252565b840190509392505050565b5f610100820190506112a25f8301886111af565b6112af6080830187611207565b6112bc60c0830186610eb6565b81810360e08301526112cf818486611262565b90509695505050505050565b5f81905092915050565b50565b5f6112f35f836112db565b91506112fe826112e5565b5f82019050919050565b5f611312826112e8565b9150819050919050565b5f60408201905061132f5f830185610eb6565b61133c6020830184611004565b9392505050565b61134c81610ede565b82525050565b5f60e0820190506113655f83018a610eb6565b6113726020830189610eb6565b61137f6040830188611004565b61138c6060830187611004565b6113996080830186611343565b6113a660a083018561102c565b6113b360c083018461102c565b98975050505050505050565b5f6060820190506113d25f830186610eb6565b6113df6020830185610eb6565b6113ec6040830184611004565b949350505050565b5f8115159050919050565b611408816113f4565b8114611412575f5ffd5b50565b5f81519050611423816113ff565b92915050565b5f6020828403121561143e5761143d610bd2565b5b5f61144b84828501611415565b91505092915050565b5f6080820190506114675f830187610eb6565b6114746020830186610eb6565b6114816040830185610eb6565b61148e6060830184611004565b95945050505050565b5f6114a283856112db565b93506114af838584611244565b82840190509392505050565b5f6114c7828486611497565b91508190509392505050565b5f6114de838561107f565b93506114eb838584611244565b6114f483611252565b840190509392505050565b611508816113f4565b82525050565b5f6080820190508181035f8301526115278187896114d3565b9050611536602083018661102c565b61154360408301856114ff565b6115506060830184611004565b969550505050505056fea26469706673582212201472f95311d88fc237bc8f97aba8b7a09db88aba35f8741253b8155ac7160b0a64736f6c634300081c0033","linkReferences":{}},"methodIdentifiers":{"FEE_RECEIVER()":"d3e78e4d","PERMIT2()":"6afdd850","lastGreetingHash()":"a09b3690","owner()":"8da5cb5b","renounceOwnership()":"715018a6","setGreetingETH(string)":"4555b30b","setGreetingWithPermit2(address,uint256,((address,uint256),uint256,uint256),bytes,string)":"3aa77936","setGreetingWithPermit2612(address,uint256,uint256,uint8,bytes32,bytes32,string)":"938df4b7","totalCounter()":"97feba9d","transferOwnership(address)":"f2fde38b","userGreetingCounter(address)":"cea49c3c"},"id":2}