{"abi":[{"type":"constructor","inputs":[{"name":"_feeReceiver","type":"address","internalType":"address"},{"name":"permit2","type":"address","internalType":"address"}],"stateMutability":"nonpayable"},{"type":"fallback","stateMutability":"payable"},{"type":"receive","stateMutability":"payable"},{"type":"function","name":"FEE_RECEIVER","inputs":[],"outputs":[{"name":"","type":"address","internalType":"address"}],"stateMutability":"view"},{"type":"function","name":"PERMIT2","inputs":[],"outputs":[{"name":"","type":"address","internalType":"contract IPermit2"}],"stateMutability":"view"},{"type":"function","name":"lastGreetingHash","inputs":[],"outputs":[{"name":"","type":"bytes32","internalType":"bytes32"}],"stateMutability":"view"},{"type":"function","name":"setGreetingETH","inputs":[{"name":"newGreeting","type":"string","internalType":"string"}],"outputs":[],"stateMutability":"payable"},{"type":"function","name":"setGreetingWithPermit2","inputs":[{"name":"token","type":"address","internalType":"address"},{"name":"fee","type":"uint256","internalType":"uint256"},{"name":"permit","type":"tuple","internalType":"struct IPermit2.PermitTransferFrom","components":[{"name":"permitted","type":"tuple","internalType":"struct IPermit2.TokenPermissions","components":[{"name":"token","type":"address","internalType":"address"},{"name":"amount","type":"uint256","internalType":"uint256"}]},{"name":"nonce","type":"uint256","internalType":"uint256"},{"name":"deadline","type":"uint256","internalType":"uint256"}]},{"name":"signature","type":"bytes","internalType":"bytes"},{"name":"newGreeting","type":"string","internalType":"string"}],"outputs":[],"stateMutability":"nonpayable"},{"type":"function","name":"setGreetingWithPermit2612","inputs":[{"name":"token","type":"address","internalType":"address"},{"name":"fee","type":"uint256","internalType":"uint256"},{"name":"deadline","type":"uint256","internalType":"uint256"},{"name":"v","type":"uint8","internalType":"uint8"},{"name":"r","type":"bytes32","internalType":"bytes32"},{"name":"s","type":"bytes32","internalType":"bytes32"},{"name":"newGreeting","type":"string","internalType":"string"}],"outputs":[],"stateMutability":"nonpayable"},{"type":"function","name":"totalCounter","inputs":[],"outputs":[{"name":"","type":"uint256","internalType":"uint256"}],"stateMutability":"view"},{"type":"function","name":"userGreetingCounter","inputs":[{"name":"","type":"address","internalType":"address"}],"outputs":[{"name":"","type":"uint256","internalType":"uint256"}],"stateMutability":"view"},{"type":"event","name":"GreetingLogged","inputs":[{"name":"user","type":"address","indexed":true,"internalType":"address"},{"name":"fullMessage","type":"string","indexed":false,"internalType":"string"},{"name":"messageHash","type":"bytes32","indexed":false,"internalType":"bytes32"},{"name":"premium","type":"bool","indexed":false,"internalType":"bool"},{"name":"fee","type":"uint256","indexed":false,"internalType":"uint256"},{"name":"token","type":"address","indexed":true,"internalType":"address"}],"anonymous":false},{"type":"error","name":"EthTransferFailed","inputs":[{"name":"to","type":"address","internalType":"address"},{"name":"amount","type":"uint256","internalType":"uint256"}]},{"type":"error","name":"ForwardFailed","inputs":[]},{"type":"error","name":"InvalidFee","inputs":[{"name":"fee","type":"uint256","internalType":"uint256"}]},{"type":"error","name":"Permit2NotConfigured","inputs":[]},{"type":"error","name":"PullFailed","inputs":[{"name":"token","type":"address","internalType":"address"},{"name":"from","type":"address","internalType":"address"},{"name":"to","type":"address","internalType":"address"},{"name":"amount","type":"uint256","internalType":"uint256"}]},{"type":"error","name":"WrongPermitToken","inputs":[{"name":"expected","type":"address","internalType":"address"},{"name":"actual","type":"address","internalType":"address"}]},{"type":"error","name":"ZeroAddress","inputs":[{"name":"param","type":"string","internalType":"string"}]}],"bytecode":{"object":"0x60c060405234801561000f575f5ffd5b506040516116fc3803806116fc8339818101604052810190610031919061016c565b5f73ffffffffffffffffffffffffffffffffffffffff168273ffffffffffffffffffffffffffffffffffffffff160361009f576040517feac0d38900000000000000000000000000000000000000000000000000000000815260040161009690610204565b60405180910390fd5b8173ffffffffffffffffffffffffffffffffffffffff1660808173ffffffffffffffffffffffffffffffffffffffff16815250508073ffffffffffffffffffffffffffffffffffffffff1660a08173ffffffffffffffffffffffffffffffffffffffff16815250505050610222565b5f5ffd5b5f73ffffffffffffffffffffffffffffffffffffffff82169050919050565b5f61013b82610112565b9050919050565b61014b81610131565b8114610155575f5ffd5b50565b5f8151905061016681610142565b92915050565b5f5f604083850312156101825761018161010e565b5b5f61018f85828601610158565b92505060206101a085828601610158565b9150509250929050565b5f82825260208201905092915050565b7f4645455f524543454956455200000000000000000000000000000000000000005f82015250565b5f6101ee600c836101aa565b91506101f9826101ba565b602082019050919050565b5f6020820190508181035f83015261021b816101e2565b9050919050565b60805160a05161147b6102815f395f818161036e01528181610526015261072001525f81816086015281816101470152818161056e0152818161062f015281816106bb015281816108860152818161090f01526109aa015261147b5ff3fe60806040526004361061007e575f3560e01c806397feba9d1161004d57806397feba9d1461029b578063a09b3690146102c5578063cea49c3c146102ef578063d3e78e4d1461032b57610144565b80633aa77936146102055780634555b30b1461022d5780636afdd85014610249578063938df4b71461027357610144565b36610144575f7f000000000000000000000000000000000000000000000000000000000000000073ffffffffffffffffffffffffffffffffffffffff16346040516100c890610aea565b5f6040518083038185875af1925050503d805f8114610102576040519150601f19603f3d011682016040523d82523d5f602084013e610107565b606091505b5050905080610142576040517f096dc0e100000000000000000000000000000000000000000000000000000000815260040160405180910390fd5b005b5f7f000000000000000000000000000000000000000000000000000000000000000073ffffffffffffffffffffffffffffffffffffffff163460405161018990610aea565b5f6040518083038185875af1925050503d805f81146101c3576040519150601f19603f3d011682016040523d82523d5f602084013e6101c8565b606091505b5050905080610203576040517f096dc0e100000000000000000000000000000000000000000000000000000000815260040160405180910390fd5b005b348015610210575f5ffd5b5061022b60048036038101906102269190610c6b565b610355565b005b61024760048036038101906102429190610d23565b610614565b005b348015610254575f5ffd5b5061025d61071e565b60405161026a9190610dc9565b60405180910390f35b34801561027e575f5ffd5b5061029960048036038101906102949190610e4b565b610742565b005b3480156102a6575f5ffd5b506102af610988565b6040516102bc9190610f17565b60405180910390f35b3480156102d0575f5ffd5b506102d961098e565b6040516102e69190610f3f565b60405180910390f35b3480156102fa575f5ffd5b5061031560048036038101906103109190610f58565b610993565b6040516103229190610f17565b60405180910390f35b348015610336575f5ffd5b5061033f6109a8565b60405161034c9190610f92565b60405180910390f35b5f73ffffffffffffffffffffffffffffffffffffffff167f000000000000000000000000000000000000000000000000000000000000000073ffffffffffffffffffffffffffffffffffffffff16036103da576040517f6f8a66c900000000000000000000000000000000000000000000000000000000815260040160405180910390fd5b5f73ffffffffffffffffffffffffffffffffffffffff168773ffffffffffffffffffffffffffffffffffffffff1603610448576040517feac0d38900000000000000000000000000000000000000000000000000000000815260040161043f90611005565b60405180910390fd5b5f860361048c57856040517f2f38c6ee0000000000000000000000000000000000000000000000000000000081526004016104839190610f17565b60405180910390fd5b8673ffffffffffffffffffffffffffffffffffffffff16855f015f0160208101906104b79190610f58565b73ffffffffffffffffffffffffffffffffffffffff16146105245786855f015f0160208101906104e79190610f58565b6040517ff36e0afd00000000000000000000000000000000000000000000000000000000815260040161051b929190611023565b60405180910390fd5b7f000000000000000000000000000000000000000000000000000000000000000073ffffffffffffffffffffffffffffffffffffffff166330f28b7a8660405180604001604052807f000000000000000000000000000000000000000000000000000000000000000073ffffffffffffffffffffffffffffffffffffffff1681526020018a8152503388886040518663ffffffff1660e01b81526004016105cf9594939291906111ba565b5f604051808303815f87803b1580156105e6575f5ffd5b505af11580156105f8573d5f5f3e3d5ffd5b5050505061060b33838360018a8c6109cc565b50505050505050565b6106243383835f3411345f6109cc565b5f34111561071a575f7f000000000000000000000000000000000000000000000000000000000000000073ffffffffffffffffffffffffffffffffffffffff163460405161067190610aea565b5f6040518083038185875af1925050503d805f81146106ab576040519150601f19603f3d011682016040523d82523d5f602084013e6106b0565b606091505b5050905080610718577f0000000000000000000000000000000000000000000000000000000000000000346040517fdea95fba00000000000000000000000000000000000000000000000000000000815260040161070f929190611207565b60405180910390fd5b505b5050565b7f000000000000000000000000000000000000000000000000000000000000000081565b5f73ffffffffffffffffffffffffffffffffffffffff168873ffffffffffffffffffffffffffffffffffffffff16036107b0576040517feac0d3890000000000000000000000000000000000000000000000000000000081526004016107a790611005565b60405180910390fd5b5f87036107f457866040517f2f38c6ee0000000000000000000000000000000000000000000000000000000081526004016107eb9190610f17565b60405180910390fd5b8773ffffffffffffffffffffffffffffffffffffffff1663d505accf33308a8a8a8a8a6040518863ffffffff1660e01b8152600401610839979695949392919061123d565b5f604051808303815f87803b158015610850575f5ffd5b505af1158015610862573d5f5f3e3d5ffd5b505050505f8873ffffffffffffffffffffffffffffffffffffffff166323b872dd337f00000000000000000000000000000000000000000000000000000000000000008b6040518463ffffffff1660e01b81526004016108c4939291906112aa565b6020604051808303815f875af11580156108e0573d5f5f3e3d5ffd5b505050506040513d601f19601f820116820180604052508101906109049190611314565b90508061096e5788337f00000000000000000000000000000000000000000000000000000000000000008a6040517fbd46005b000000000000000000000000000000000000000000000000000000008152600401610965949392919061133f565b60405180910390fd5b61097d33848460018c8e6109cc565b505050505050505050565b60015481565b5f5481565b6002602052805f5260405f205f915090505481565b7f000000000000000000000000000000000000000000000000000000000000000081565b5f85856040516109dd9291906113a6565b60405180910390209050805f819055506001805f8282540192505081905550600160025f8973ffffffffffffffffffffffffffffffffffffffff1673ffffffffffffffffffffffffffffffffffffffff1681526020019081526020015f205f82825401925050819055508173ffffffffffffffffffffffffffffffffffffffff168773ffffffffffffffffffffffffffffffffffffffff167ff484cd319f089999b9be8b3e92faf00cb8235eea8de3fd2405a3ee0baf3c2ac38888858989604051610aac9594939291906113f9565b60405180910390a350505050505050565b5f81905092915050565b50565b5f610ad55f83610abd565b9150610ae082610ac7565b5f82019050919050565b5f610af482610aca565b9150819050919050565b5f5ffd5b5f5ffd5b5f73ffffffffffffffffffffffffffffffffffffffff82169050919050565b5f610b2f82610b06565b9050919050565b610b3f81610b25565b8114610b49575f5ffd5b50565b5f81359050610b5a81610b36565b92915050565b5f819050919050565b610b7281610b60565b8114610b7c575f5ffd5b50565b5f81359050610b8d81610b69565b92915050565b5f5ffd5b5f60808284031215610bac57610bab610b93565b5b81905092915050565b5f5ffd5b5f5ffd5b5f5ffd5b5f5f83601f840112610bd657610bd5610bb5565b5b8235905067ffffffffffffffff811115610bf357610bf2610bb9565b5b602083019150836001820283011115610c0f57610c0e610bbd565b5b9250929050565b5f5f83601f840112610c2b57610c2a610bb5565b5b8235905067ffffffffffffffff811115610c4857610c47610bb9565b5b602083019150836001820283011115610c6457610c63610bbd565b5b9250929050565b5f5f5f5f5f5f5f610100888a031215610c8757610c86610afe565b5b5f610c948a828b01610b4c565b9750506020610ca58a828b01610b7f565b9650506040610cb68a828b01610b97565b95505060c088013567ffffffffffffffff811115610cd757610cd6610b02565b5b610ce38a828b01610bc1565b945094505060e088013567ffffffffffffffff811115610d0657610d05610b02565b5b610d128a828b01610c16565b925092505092959891949750929550565b5f5f60208385031215610d3957610d38610afe565b5b5f83013567ffffffffffffffff811115610d5657610d55610b02565b5b610d6285828601610c16565b92509250509250929050565b5f819050919050565b5f610d91610d8c610d8784610b06565b610d6e565b610b06565b9050919050565b5f610da282610d77565b9050919050565b5f610db382610d98565b9050919050565b610dc381610da9565b82525050565b5f602082019050610ddc5f830184610dba565b92915050565b5f60ff82169050919050565b610df781610de2565b8114610e01575f5ffd5b50565b5f81359050610e1281610dee565b92915050565b5f819050919050565b610e2a81610e18565b8114610e34575f5ffd5b50565b5f81359050610e4581610e21565b92915050565b5f5f5f5f5f5f5f5f60e0898b031215610e6757610e66610afe565b5b5f610e748b828c01610b4c565b9850506020610e858b828c01610b7f565b9750506040610e968b828c01610b7f565b9650506060610ea78b828c01610e04565b9550506080610eb88b828c01610e37565b94505060a0610ec98b828c01610e37565b93505060c089013567ffffffffffffffff811115610eea57610ee9610b02565b5b610ef68b828c01610c16565b92509250509295985092959890939650565b610f1181610b60565b82525050565b5f602082019050610f2a5f830184610f08565b92915050565b610f3981610e18565b82525050565b5f602082019050610f525f830184610f30565b92915050565b5f60208284031215610f6d57610f6c610afe565b5b5f610f7a84828501610b4c565b91505092915050565b610f8c81610b25565b82525050565b5f602082019050610fa55f830184610f83565b92915050565b5f82825260208201905092915050565b7f746f6b656e0000000000000000000000000000000000000000000000000000005f82015250565b5f610fef600583610fab565b9150610ffa82610fbb565b602082019050919050565b5f6020820190508181035f83015261101c81610fe3565b9050919050565b5f6040820190506110365f830185610f83565b6110436020830184610f83565b9392505050565b5f82905092915050565b5f6110626020840184610b4c565b905092915050565b61107381610b25565b82525050565b5f6110876020840184610b7f565b905092915050565b61109881610b60565b82525050565b604082016110ae5f830183611054565b6110ba5f85018261106a565b506110c86020830183611079565b6110d5602085018261108f565b50505050565b608082016110eb5f83018361104a565b6110f75f85018261109e565b506111056040830183611079565b611112604085018261108f565b506111206060830183611079565b61112d606085018261108f565b50505050565b604082015f8201516111475f85018261106a565b50602082015161115a602085018261108f565b50505050565b5f82825260208201905092915050565b828183375f83830152505050565b5f601f19601f8301169050919050565b5f6111998385611160565b93506111a6838584611170565b6111af8361117e565b840190509392505050565b5f610100820190506111ce5f8301886110db565b6111db6080830187611133565b6111e860c0830186610f83565b81810360e08301526111fb81848661118e565b90509695505050505050565b5f60408201905061121a5f830185610f83565b6112276020830184610f08565b9392505050565b61123781610de2565b82525050565b5f60e0820190506112505f83018a610f83565b61125d6020830189610f83565b61126a6040830188610f08565b6112776060830187610f08565b611284608083018661122e565b61129160a0830185610f30565b61129e60c0830184610f30565b98975050505050505050565b5f6060820190506112bd5f830186610f83565b6112ca6020830185610f83565b6112d76040830184610f08565b949350505050565b5f8115159050919050565b6112f3816112df565b81146112fd575f5ffd5b50565b5f8151905061130e816112ea565b92915050565b5f6020828403121561132957611328610afe565b5b5f61133684828501611300565b91505092915050565b5f6080820190506113525f830187610f83565b61135f6020830186610f83565b61136c6040830185610f83565b6113796060830184610f08565b95945050505050565b5f61138d8385610abd565b935061139a838584611170565b82840190509392505050565b5f6113b2828486611382565b91508190509392505050565b5f6113c98385610fab565b93506113d6838584611170565b6113df8361117e565b840190509392505050565b6113f3816112df565b82525050565b5f6080820190508181035f8301526114128187896113be565b90506114216020830186610f30565b61142e60408301856113ea565b61143b6060830184610f08565b969550505050505056fea264697066735822122064607ae98903f18d01e2b2fbff065099cf32d4de489976c2476a5ca05182be9d64736f6c634300081c0033","linkReferences":{}},"methodIdentifiers":{"FEE_RECEIVER()":"d3e78e4d","PERMIT2()":"6afdd850","lastGreetingHash()":"a09b3690","setGreetingETH(string)":"4555b30b","setGreetingWithPermit2(address,uint256,((address,uint256),uint256,uint256),bytes,string)":"3aa77936","setGreetingWithPermit2612(address,uint256,uint256,uint8,bytes32,bytes32,string)":"938df4b7","totalCounter()":"97feba9d","userGreetingCounter(address)":"cea49c3c"},"id":0}